{
  "_format": "hh-sol-artifact-1",
  "contractName": "SimpleOracle",
  "sourceName": "contracts/SimpleOracle.sol",
  "abi": [
    {
      "inputs": [
        {
          "internalType": "address",
          "name": "initialOwner",
          "type": "address"
        },
        {
          "internalType": "address",
          "name": "initialOracleSigner",
          "type": "address"
        },
        {
          "internalType": "address",
          "name": "initialKycContract",
          "type": "address"
        }
      ],
      "stateMutability": "nonpayable",
      "type": "constructor"
    },
    {
      "inputs": [
        {
          "internalType": "address",
          "name": "account",
          "type": "address"
        }
      ],
      "name": "AddressNotWhitelisted",
      "type": "error"
    },
    {
      "inputs": [],
      "name": "ECDSAInvalidSignature",
      "type": "error"
    },
    {
      "inputs": [
        {
          "internalType": "uint256",
          "name": "length",
          "type": "uint256"
        }
      ],
      "name": "ECDSAInvalidSignatureLength",
      "type": "error"
    },
    {
      "inputs": [
        {
          "internalType": "bytes32",
          "name": "s",
          "type": "bytes32"
        }
      ],
      "name": "ECDSAInvalidSignatureS",
      "type": "error"
    },
    {
      "inputs": [],
      "name": "InvalidKYCContractAddress",
      "type": "error"
    },
    {
      "inputs": [],
      "name": "InvalidShortString",
      "type": "error"
    },
    {
      "inputs": [],
      "name": "InvalidSignature",
      "type": "error"
    },
    {
      "inputs": [],
      "name": "InvalidSignerAddress",
      "type": "error"
    },
    {
      "inputs": [
        {
          "internalType": "bytes32",
          "name": "assetId",
          "type": "bytes32"
        },
        {
          "internalType": "uint256",
          "name": "timestamp",
          "type": "uint256"
        }
      ],
      "name": "NoValidatedPriceFound",
      "type": "error"
    },
    {
      "inputs": [
        {
          "internalType": "address",
          "name": "owner",
          "type": "address"
        }
      ],
      "name": "OwnableInvalidOwner",
      "type": "error"
    },
    {
      "inputs": [
        {
          "internalType": "address",
          "name": "account",
          "type": "address"
        }
      ],
      "name": "OwnableUnauthorizedAccount",
      "type": "error"
    },
    {
      "inputs": [
        {
          "internalType": "string",
          "name": "str",
          "type": "string"
        }
      ],
      "name": "StringTooLong",
      "type": "error"
    },
    {
      "anonymous": false,
      "inputs": [],
      "name": "EIP712DomainChanged",
      "type": "event"
    },
    {
      "anonymous": false,
      "inputs": [
        {
          "indexed": true,
          "internalType": "address",
          "name": "oldContract",
          "type": "address"
        },
        {
          "indexed": true,
          "internalType": "address",
          "name": "newContract",
          "type": "address"
        }
      ],
      "name": "KYCContractUpdated",
      "type": "event"
    },
    {
      "anonymous": false,
      "inputs": [
        {
          "indexed": true,
          "internalType": "address",
          "name": "oldSigner",
          "type": "address"
        },
        {
          "indexed": true,
          "internalType": "address",
          "name": "newSigner",
          "type": "address"
        }
      ],
      "name": "OracleSignerUpdated",
      "type": "event"
    },
    {
      "anonymous": false,
      "inputs": [
        {
          "indexed": true,
          "internalType": "address",
          "name": "previousOwner",
          "type": "address"
        },
        {
          "indexed": true,
          "internalType": "address",
          "name": "newOwner",
          "type": "address"
        }
      ],
      "name": "OwnershipTransferred",
      "type": "event"
    },
    {
      "anonymous": false,
      "inputs": [
        {
          "indexed": true,
          "internalType": "bytes32",
          "name": "assetId",
          "type": "bytes32"
        },
        {
          "indexed": false,
          "internalType": "uint256",
          "name": "timestamp",
          "type": "uint256"
        },
        {
          "indexed": false,
          "internalType": "uint256",
          "name": "price",
          "type": "uint256"
        },
        {
          "indexed": true,
          "internalType": "address",
          "name": "signer",
          "type": "address"
        }
      ],
      "name": "PriceValidationFulfilled",
      "type": "event"
    },
    {
      "anonymous": false,
      "inputs": [
        {
          "indexed": true,
          "internalType": "bytes32",
          "name": "assetId",
          "type": "bytes32"
        },
        {
          "indexed": false,
          "internalType": "uint256",
          "name": "timestamp",
          "type": "uint256"
        },
        {
          "indexed": true,
          "internalType": "address",
          "name": "requester",
          "type": "address"
        }
      ],
      "name": "PriceValidationRequested",
      "type": "event"
    },
    {
      "inputs": [],
      "name": "DOMAIN_SEPARATOR",
      "outputs": [
        {
          "internalType": "bytes32",
          "name": "",
          "type": "bytes32"
        }
      ],
      "stateMutability": "view",
      "type": "function"
    },
    {
      "inputs": [],
      "name": "eip712Domain",
      "outputs": [
        {
          "internalType": "bytes1",
          "name": "fields",
          "type": "bytes1"
        },
        {
          "internalType": "string",
          "name": "name",
          "type": "string"
        },
        {
          "internalType": "string",
          "name": "version",
          "type": "string"
        },
        {
          "internalType": "uint256",
          "name": "chainId",
          "type": "uint256"
        },
        {
          "internalType": "address",
          "name": "verifyingContract",
          "type": "address"
        },
        {
          "internalType": "bytes32",
          "name": "salt",
          "type": "bytes32"
        },
        {
          "internalType": "uint256[]",
          "name": "extensions",
          "type": "uint256[]"
        }
      ],
      "stateMutability": "view",
      "type": "function"
    },
    {
      "inputs": [
        {
          "internalType": "bytes32",
          "name": "assetId",
          "type": "bytes32"
        },
        {
          "internalType": "uint256",
          "name": "timestamp",
          "type": "uint256"
        },
        {
          "internalType": "uint256",
          "name": "price",
          "type": "uint256"
        },
        {
          "internalType": "bytes",
          "name": "signature",
          "type": "bytes"
        }
      ],
      "name": "fulfillPriceValidation",
      "outputs": [],
      "stateMutability": "nonpayable",
      "type": "function"
    },
    {
      "inputs": [],
      "name": "getKYCContractAddress",
      "outputs": [
        {
          "internalType": "address",
          "name": "",
          "type": "address"
        }
      ],
      "stateMutability": "view",
      "type": "function"
    },
    {
      "inputs": [],
      "name": "getOracleSigner",
      "outputs": [
        {
          "internalType": "address",
          "name": "",
          "type": "address"
        }
      ],
      "stateMutability": "view",
      "type": "function"
    },
    {
      "inputs": [
        {
          "internalType": "bytes32",
          "name": "assetId",
          "type": "bytes32"
        },
        {
          "internalType": "uint256",
          "name": "timestamp",
          "type": "uint256"
        }
      ],
      "name": "getValidatedPrice",
      "outputs": [
        {
          "internalType": "uint256",
          "name": "",
          "type": "uint256"
        }
      ],
      "stateMutability": "view",
      "type": "function"
    },
    {
      "inputs": [
        {
          "internalType": "bytes32",
          "name": "assetId",
          "type": "bytes32"
        },
        {
          "internalType": "uint256",
          "name": "timestamp",
          "type": "uint256"
        }
      ],
      "name": "hasValidatedPrice",
      "outputs": [
        {
          "internalType": "bool",
          "name": "",
          "type": "bool"
        }
      ],
      "stateMutability": "view",
      "type": "function"
    },
    {
      "inputs": [],
      "name": "owner",
      "outputs": [
        {
          "internalType": "address",
          "name": "",
          "type": "address"
        }
      ],
      "stateMutability": "view",
      "type": "function"
    },
    {
      "inputs": [],
      "name": "renounceOwnership",
      "outputs": [],
      "stateMutability": "nonpayable",
      "type": "function"
    },
    {
      "inputs": [
        {
          "internalType": "bytes32",
          "name": "assetId",
          "type": "bytes32"
        },
        {
          "internalType": "uint256",
          "name": "timestamp",
          "type": "uint256"
        }
      ],
      "name": "requestPriceValidation",
      "outputs": [],
      "stateMutability": "nonpayable",
      "type": "function"
    },
    {
      "inputs": [
        {
          "internalType": "address",
          "name": "newKycContract",
          "type": "address"
        }
      ],
      "name": "setKYCContract",
      "outputs": [],
      "stateMutability": "nonpayable",
      "type": "function"
    },
    {
      "inputs": [
        {
          "internalType": "address",
          "name": "newOracleSigner",
          "type": "address"
        }
      ],
      "name": "setOracleSigner",
      "outputs": [],
      "stateMutability": "nonpayable",
      "type": "function"
    },
    {
      "inputs": [
        {
          "internalType": "address",
          "name": "newOwner",
          "type": "address"
        }
      ],
      "name": "transferOwnership",
      "outputs": [],
      "stateMutability": "nonpayable",
      "type": "function"
    }
  ],
  "bytecode": "0x6101606040523480156200001257600080fd5b506040516200257538038062002575833981810160405281019062000038919062000645565b6040518060400160405280600c81526020017f53696d706c654f7261636c6500000000000000000000000000000000000000008152506040518060400160405280600181526020017f310000000000000000000000000000000000000000000000000000000000000081525084600073ffffffffffffffffffffffffffffffffffffffff168173ffffffffffffffffffffffffffffffffffffffff16036200011a5760006040517f1e4fbdf7000000000000000000000000000000000000000000000000000000008152600401620001119190620006b2565b60405180910390fd5b6200012b81620003eb60201b60201c565b5062000142600183620004af60201b90919060201c565b610120818152505062000160600282620004af60201b90919060201c565b6101408181525050818051906020012060e08181525050808051906020012061010081815250504660a081815250506200019f6200050760201b60201c565b608081815250503073ffffffffffffffffffffffffffffffffffffffff1660c08173ffffffffffffffffffffffffffffffffffffffff16815250505050600073ffffffffffffffffffffffffffffffffffffffff168273ffffffffffffffffffffffffffffffffffffffff160362000243576040517f4501a91900000000000000000000000000000000000000000000000000000000815260040160405180910390fd5b600073ffffffffffffffffffffffffffffffffffffffff168173ffffffffffffffffffffffffffffffffffffffff1603620002aa576040517fae5b8a4a00000000000000000000000000000000000000000000000000000000815260040160405180910390fd5b81600360006101000a81548173ffffffffffffffffffffffffffffffffffffffff021916908373ffffffffffffffffffffffffffffffffffffffff16021790555080600460006101000a81548173ffffffffffffffffffffffffffffffffffffffff021916908373ffffffffffffffffffffffffffffffffffffffff1602179055508173ffffffffffffffffffffffffffffffffffffffff16600073ffffffffffffffffffffffffffffffffffffffff167f53484eb5c3028cc71fda017d41e647dea2740218d0f723d84cf7e98476459a8e60405160405180910390a38073ffffffffffffffffffffffffffffffffffffffff16600073ffffffffffffffffffffffffffffffffffffffff167f38b9e6097d4e16379f526e511dc77658ba2949cdb2dd4dfc9606715e1f06b2f260405160405180910390a350505062000c0e565b60008060009054906101000a900473ffffffffffffffffffffffffffffffffffffffff169050816000806101000a81548173ffffffffffffffffffffffffffffffffffffffff021916908373ffffffffffffffffffffffffffffffffffffffff1602179055508173ffffffffffffffffffffffffffffffffffffffff168173ffffffffffffffffffffffffffffffffffffffff167f8be0079c531659141344cd1fd0a4f28419497f9722a3daafe3b4186f6b6457e060405160405180910390a35050565b6000602083511015620004d557620004cd836200056460201b60201c565b905062000501565b82620004e783620005d160201b60201c565b6000019081620004f8919062000949565b5060ff60001b90505b92915050565b60007f8b73c3c69bb8fe3d512ecc4cf759cc79239f7b179b0ffacaa9a75d522b39400f60e0516101005146306040516020016200054995949392919062000a5c565b60405160208183030381529060405280519060200120905090565b600080829050601f81511115620005b457826040517f305a27a9000000000000000000000000000000000000000000000000000000008152600401620005ab919062000b48565b60405180910390fd5b805181620005c29062000b9e565b60001c1760001b915050919050565b6000819050919050565b600080fd5b600073ffffffffffffffffffffffffffffffffffffffff82169050919050565b60006200060d82620005e0565b9050919050565b6200061f8162000600565b81146200062b57600080fd5b50565b6000815190506200063f8162000614565b92915050565b600080600060608486031215620006615762000660620005db565b5b600062000671868287016200062e565b935050602062000684868287016200062e565b925050604062000697868287016200062e565b9150509250925092565b620006ac8162000600565b82525050565b6000602082019050620006c96000830184620006a1565b92915050565b600081519050919050565b7f4e487b7100000000000000000000000000000000000000000000000000000000600052604160045260246000fd5b7f4e487b7100000000000000000000000000000000000000000000000000000000600052602260045260246000fd5b600060028204905060018216806200075157607f821691505b60208210810362000767576200076662000709565b5b50919050565b60008190508160005260206000209050919050565b60006020601f8301049050919050565b600082821b905092915050565b600060088302620007d17fffffffffffffffffffffffffffffffffffffffffffffffffffffffffffffffff8262000792565b620007dd868362000792565b95508019841693508086168417925050509392505050565b6000819050919050565b6000819050919050565b60006200082a620008246200081e84620007f5565b620007ff565b620007f5565b9050919050565b6000819050919050565b620008468362000809565b6200085e620008558262000831565b8484546200079f565b825550505050565b600090565b6200087562000866565b620008828184846200083b565b505050565b5b81811015620008aa576200089e6000826200086b565b60018101905062000888565b5050565b601f821115620008f957620008c3816200076d565b620008ce8462000782565b81016020851015620008de578190505b620008f6620008ed8562000782565b83018262000887565b50505b505050565b600082821c905092915050565b60006200091e60001984600802620008fe565b1980831691505092915050565b60006200093983836200090b565b9150826002028217905092915050565b6200095482620006cf565b67ffffffffffffffff81111562000970576200096f620006da565b5b6200097c825462000738565b62000989828285620008ae565b600060209050601f831160018114620009c15760008415620009ac578287015190505b620009b885826200092b565b86555062000a28565b601f198416620009d1866200076d565b60005b82811015620009fb57848901518255600182019150602085019450602081019050620009d4565b8683101562000a1b578489015162000a17601f8916826200090b565b8355505b6001600288020188555050505b505050505050565b6000819050919050565b62000a458162000a30565b82525050565b62000a5681620007f5565b82525050565b600060a08201905062000a73600083018862000a3a565b62000a82602083018762000a3a565b62000a91604083018662000a3a565b62000aa0606083018562000a4b565b62000aaf6080830184620006a1565b9695505050505050565b600082825260208201905092915050565b60005b8381101562000aea57808201518184015260208101905062000acd565b60008484015250505050565b6000601f19601f8301169050919050565b600062000b1482620006cf565b62000b20818562000ab9565b935062000b3281856020860162000aca565b62000b3d8162000af6565b840191505092915050565b6000602082019050818103600083015262000b64818462000b07565b905092915050565b600081519050919050565b6000819050602082019050919050565b600062000b95825162000a30565b80915050919050565b600062000bab8262000b6c565b8262000bb78462000b77565b905062000bc48162000b87565b9250602082101562000c075762000c027fffffffffffffffffffffffffffffffffffffffffffffffffffffffffffffffff8360200360080262000792565b831692505b5050919050565b60805160a05160c05160e05161010051610120516101405161190c62000c696000396000610c7501526000610c3a01526000610ef601526000610ed501526000610aba01526000610b1001526000610b39015261190c6000f3fe608060405234801561001057600080fd5b50600436106100cf5760003560e01c8063715018a61161008c578063c389b59111610066578063c389b591146101e0578063e35824a6146101fc578063f2fde38b1461022c578063f9fc3b3b14610248576100cf565b8063715018a61461019457806384b0196e1461019e5780638da5cb5b146101c2576100cf565b806304fc3167146100d457806328bff9db146100f05780633644e5151461010c57806336d0c5911461012a5780634a60bb171461015a578063573ceb1414610176575b600080fd5b6100ee60048036038101906100e99190611289565b610266565b005b61010a6004803603810190610105919061136f565b610421565b005b610114610555565b60405161012191906113ab565b60405180910390f35b610144600480360381019061013f91906113c6565b610564565b6040516101519190611415565b60405180910390f35b610174600480360381019061016f919061136f565b610593565b005b61017e6106c7565b60405161018b919061143f565b60405180910390f35b61019c6106f1565b005b6101a6610705565b6040516101b997969594939291906115e3565b60405180910390f35b6101ca6107af565b6040516101d7919061143f565b60405180910390f35b6101fa60048036038101906101f591906113c6565b6107d8565b005b610216600480360381019061021191906113c6565b610908565b6040516102239190611682565b60405180910390f35b6102466004803603810190610241919061136f565b610939565b005b6102506109bf565b60405161025d919061143f565b60405180910390f35b60007f0a7ddfc1b443393e1e4a6f0209f09ea7d6d906a56fc168bc51de5aced8c8ae8c86868660405160200161029f949392919061169d565b60405160208183030381529060405280519060200120905060006102c2826109e9565b905060006103148286868080601f016020809104026020016040519081016040528093929190818152602001838380828437600081840152601f19601f82011690508083019250505050505050610a03565b9050600360009054906101000a900473ffffffffffffffffffffffffffffffffffffffff1673ffffffffffffffffffffffffffffffffffffffff168173ffffffffffffffffffffffffffffffffffffffff161461039d576040517f8baa579f00000000000000000000000000000000000000000000000000000000815260040160405180910390fd5b85600560008a81526020019081526020016000206000898152602001908152602001600020819055508073ffffffffffffffffffffffffffffffffffffffff16887ffc9f7f0e248db3b488b760521dd736625319099177c71acd755c8ec3877346b5898960405161040f9291906116e2565b60405180910390a35050505050505050565b610429610a2f565b600073ffffffffffffffffffffffffffffffffffffffff168173ffffffffffffffffffffffffffffffffffffffff160361048f576040517f4501a91900000000000000000000000000000000000000000000000000000000815260040160405180910390fd5b6000600360009054906101000a900473ffffffffffffffffffffffffffffffffffffffff16905081600360006101000a81548173ffffffffffffffffffffffffffffffffffffffff021916908373ffffffffffffffffffffffffffffffffffffffff1602179055508173ffffffffffffffffffffffffffffffffffffffff168173ffffffffffffffffffffffffffffffffffffffff167f53484eb5c3028cc71fda017d41e647dea2740218d0f723d84cf7e98476459a8e60405160405180910390a35050565b600061055f610ab6565b905090565b600060056000848152602001908152602001600020600083815260200190815260200160002054905092915050565b61059b610a2f565b600073ffffffffffffffffffffffffffffffffffffffff168173ffffffffffffffffffffffffffffffffffffffff1603610601576040517fae5b8a4a00000000000000000000000000000000000000000000000000000000815260040160405180910390fd5b6000600460009054906101000a900473ffffffffffffffffffffffffffffffffffffffff16905081600460006101000a81548173ffffffffffffffffffffffffffffffffffffffff021916908373ffffffffffffffffffffffffffffffffffffffff1602179055508173ffffffffffffffffffffffffffffffffffffffff168173ffffffffffffffffffffffffffffffffffffffff167f38b9e6097d4e16379f526e511dc77658ba2949cdb2dd4dfc9606715e1f06b2f260405160405180910390a35050565b6000600360009054906101000a900473ffffffffffffffffffffffffffffffffffffffff16905090565b6106f9610a2f565b6107036000610b6d565b565b600060608060008060006060610719610c31565b610721610c6c565b46306000801b600067ffffffffffffffff8111156107425761074161170b565b5b6040519080825280602002602001820160405280156107705781602001602082028036833780820191505090505b507f0f00000000000000000000000000000000000000000000000000000000000000959493929190965096509650965096509650965090919293949596565b60008060009054906101000a900473ffffffffffffffffffffffffffffffffffffffff16905090565b600460009054906101000a900473ffffffffffffffffffffffffffffffffffffffff1673ffffffffffffffffffffffffffffffffffffffff16633af32abf336040518263ffffffff1660e01b8152600401610833919061143f565b602060405180830381865afa158015610850573d6000803e3d6000fd5b505050506040513d601f19601f820116820180604052508101906108749190611766565b6108b557336040517feadb950f0000000000000000000000000000000000000000000000000000000081526004016108ac919061143f565b60405180910390fd5b3373ffffffffffffffffffffffffffffffffffffffff16827f9560f2c282146eff2d598eb4f2f5103dded1e0fde59450f8967020454e383d25836040516108fc9190611415565b60405180910390a35050565b6000806005600085815260200190815260200160002060008481526020019081526020016000205411905092915050565b610941610a2f565b600073ffffffffffffffffffffffffffffffffffffffff168173ffffffffffffffffffffffffffffffffffffffff16036109b35760006040517f1e4fbdf70000000000000000000000000000000000000000000000000000000081526004016109aa919061143f565b60405180910390fd5b6109bc81610b6d565b50565b6000600460009054906101000a900473ffffffffffffffffffffffffffffffffffffffff16905090565b60006109fc6109f6610ab6565b83610ca7565b9050919050565b600080600080610a138686610ce8565b925092509250610a238282610d44565b82935050505092915050565b610a37610ea8565b73ffffffffffffffffffffffffffffffffffffffff16610a556107af565b73ffffffffffffffffffffffffffffffffffffffff1614610ab457610a78610ea8565b6040517f118cdaa7000000000000000000000000000000000000000000000000000000008152600401610aab919061143f565b60405180910390fd5b565b60007f000000000000000000000000000000000000000000000000000000000000000073ffffffffffffffffffffffffffffffffffffffff163073ffffffffffffffffffffffffffffffffffffffff16148015610b3257507f000000000000000000000000000000000000000000000000000000000000000046145b15610b5f577f00000000000000000000000000000000000000000000000000000000000000009050610b6a565b610b67610eb0565b90505b90565b60008060009054906101000a900473ffffffffffffffffffffffffffffffffffffffff169050816000806101000a81548173ffffffffffffffffffffffffffffffffffffffff021916908373ffffffffffffffffffffffffffffffffffffffff1602179055508173ffffffffffffffffffffffffffffffffffffffff168173ffffffffffffffffffffffffffffffffffffffff167f8be0079c531659141344cd1fd0a4f28419497f9722a3daafe3b4186f6b6457e060405160405180910390a35050565b6060610c6760017f0000000000000000000000000000000000000000000000000000000000000000610f4690919063ffffffff16565b905090565b6060610ca260027f0000000000000000000000000000000000000000000000000000000000000000610f4690919063ffffffff16565b905090565b60006040517f190100000000000000000000000000000000000000000000000000000000000081528360028201528260228201526042812091505092915050565b60008060006041845103610d2d5760008060006020870151925060408701519150606087015160001a9050610d1f88828585610ff6565b955095509550505050610d3d565b60006002855160001b9250925092505b9250925092565b60006003811115610d5857610d57611793565b5b826003811115610d6b57610d6a611793565b5b0315610ea45760016003811115610d8557610d84611793565b5b826003811115610d9857610d97611793565b5b03610dcf576040517ff645eedf00000000000000000000000000000000000000000000000000000000815260040160405180910390fd5b60026003811115610de357610de2611793565b5b826003811115610df657610df5611793565b5b03610e3b578060001c6040517ffce698f7000000000000000000000000000000000000000000000000000000008152600401610e329190611415565b60405180910390fd5b600380811115610e4e57610e4d611793565b5b826003811115610e6157610e60611793565b5b03610ea357806040517fd78bce0c000000000000000000000000000000000000000000000000000000008152600401610e9a91906113ab565b60405180910390fd5b5b5050565b600033905090565b60007f8b73c3c69bb8fe3d512ecc4cf759cc79239f7b179b0ffacaa9a75d522b39400f7f00000000000000000000000000000000000000000000000000000000000000007f00000000000000000000000000000000000000000000000000000000000000004630604051602001610f2b9594939291906117c2565b60405160208183030381529060405280519060200120905090565b606060ff60001b8314610f6357610f5c836110ea565b9050610ff0565b818054610f6f90611844565b80601f0160208091040260200160405190810160405280929190818152602001828054610f9b90611844565b8015610fe85780601f10610fbd57610100808354040283529160200191610fe8565b820191906000526020600020905b815481529060010190602001808311610fcb57829003601f168201915b505050505090505b92915050565b60008060007f7fffffffffffffffffffffffffffffff5d576e7357a4501ddfe92f46681b20a08460001c11156110365760006003859250925092506110e0565b60006001888888886040516000815260200160405260405161105b9493929190611891565b6020604051602081039080840390855afa15801561107d573d6000803e3d6000fd5b505050602060405103519050600073ffffffffffffffffffffffffffffffffffffffff168173ffffffffffffffffffffffffffffffffffffffff16036110d157600060016000801b935093509350506110e0565b8060008060001b935093509350505b9450945094915050565b606060006110f78361115e565b90506000602067ffffffffffffffff8111156111165761111561170b565b5b6040519080825280601f01601f1916602001820160405280156111485781602001600182028036833780820191505090505b5090508181528360208201528092505050919050565b60008060ff8360001c169050601f8111156111a5576040517fb3512b0c00000000000000000000000000000000000000000000000000000000815260040160405180910390fd5b80915050919050565b600080fd5b600080fd5b6000819050919050565b6111cb816111b8565b81146111d657600080fd5b50565b6000813590506111e8816111c2565b92915050565b6000819050919050565b611201816111ee565b811461120c57600080fd5b50565b60008135905061121e816111f8565b92915050565b600080fd5b600080fd5b600080fd5b60008083601f84011261124957611248611224565b5b8235905067ffffffffffffffff81111561126657611265611229565b5b6020830191508360018202830111156112825761128161122e565b5b9250929050565b6000806000806000608086880312156112a5576112a46111ae565b5b60006112b3888289016111d9565b95505060206112c48882890161120f565b94505060406112d58882890161120f565b935050606086013567ffffffffffffffff8111156112f6576112f56111b3565b5b61130288828901611233565b92509250509295509295909350565b600073ffffffffffffffffffffffffffffffffffffffff82169050919050565b600061133c82611311565b9050919050565b61134c81611331565b811461135757600080fd5b50565b60008135905061136981611343565b92915050565b600060208284031215611385576113846111ae565b5b60006113938482850161135a565b91505092915050565b6113a5816111b8565b82525050565b60006020820190506113c0600083018461139c565b92915050565b600080604083850312156113dd576113dc6111ae565b5b60006113eb858286016111d9565b92505060206113fc8582860161120f565b9150509250929050565b61140f816111ee565b82525050565b600060208201905061142a6000830184611406565b92915050565b61143981611331565b82525050565b60006020820190506114546000830184611430565b92915050565b60007fff0000000000000000000000000000000000000000000000000000000000000082169050919050565b61148f8161145a565b82525050565b600081519050919050565b600082825260208201905092915050565b60005b838110156114cf5780820151818401526020810190506114b4565b60008484015250505050565b6000601f19601f8301169050919050565b60006114f782611495565b61150181856114a0565b93506115118185602086016114b1565b61151a816114db565b840191505092915050565b600081519050919050565b600082825260208201905092915050565b6000819050602082019050919050565b61155a816111ee565b82525050565b600061156c8383611551565b60208301905092915050565b6000602082019050919050565b600061159082611525565b61159a8185611530565b93506115a583611541565b8060005b838110156115d65781516115bd8882611560565b97506115c883611578565b9250506001810190506115a9565b5085935050505092915050565b600060e0820190506115f8600083018a611486565b818103602083015261160a81896114ec565b9050818103604083015261161e81886114ec565b905061162d6060830187611406565b61163a6080830186611430565b61164760a083018561139c565b81810360c08301526116598184611585565b905098975050505050505050565b60008115159050919050565b61167c81611667565b82525050565b60006020820190506116976000830184611673565b92915050565b60006080820190506116b2600083018761139c565b6116bf602083018661139c565b6116cc6040830185611406565b6116d96060830184611406565b95945050505050565b60006040820190506116f76000830185611406565b6117046020830184611406565b9392505050565b7f4e487b7100000000000000000000000000000000000000000000000000000000600052604160045260246000fd5b61174381611667565b811461174e57600080fd5b50565b6000815190506117608161173a565b92915050565b60006020828403121561177c5761177b6111ae565b5b600061178a84828501611751565b91505092915050565b7f4e487b7100000000000000000000000000000000000000000000000000000000600052602160045260246000fd5b600060a0820190506117d7600083018861139c565b6117e4602083018761139c565b6117f1604083018661139c565b6117fe6060830185611406565b61180b6080830184611430565b9695505050505050565b7f4e487b7100000000000000000000000000000000000000000000000000000000600052602260045260246000fd5b6000600282049050600182168061185c57607f821691505b60208210810361186f5761186e611815565b5b50919050565b600060ff82169050919050565b61188b81611875565b82525050565b60006080820190506118a6600083018761139c565b6118b36020830186611882565b6118c0604083018561139c565b6118cd606083018461139c565b9594505050505056fea26469706673582212204a110609af160f55fea296db19ec721b3fa434480f815d4cd83045b7c398b04764736f6c63430008180033",
  "linkReferences": {},
  "deployedLinkReferences": {}
}