{
  "_format": "hh-sol-artifact-1",
  "contractName": "KYCWhitelist",
  "sourceName": "contracts/KYCWhitelist.sol",
  "abi": [
    {
      "inputs": [
        {
          "internalType": "address",
          "name": "initialOwner",
          "type": "address"
        }
      ],
      "stateMutability": "nonpayable",
      "type": "constructor"
    },
    {
      "inputs": [
        {
          "internalType": "address",
          "name": "owner",
          "type": "address"
        }
      ],
      "name": "OwnableInvalidOwner",
      "type": "error"
    },
    {
      "inputs": [
        {
          "internalType": "address",
          "name": "account",
          "type": "address"
        }
      ],
      "name": "OwnableUnauthorizedAccount",
      "type": "error"
    },
    {
      "anonymous": false,
      "inputs": [
        {
          "indexed": true,
          "internalType": "address",
          "name": "previousOwner",
          "type": "address"
        },
        {
          "indexed": true,
          "internalType": "address",
          "name": "newOwner",
          "type": "address"
        }
      ],
      "name": "OwnershipTransferred",
      "type": "event"
    },
    {
      "anonymous": false,
      "inputs": [
        {
          "indexed": true,
          "internalType": "address",
          "name": "account",
          "type": "address"
        }
      ],
      "name": "WhitelistedAddressAdded",
      "type": "event"
    },
    {
      "anonymous": false,
      "inputs": [
        {
          "indexed": true,
          "internalType": "address",
          "name": "account",
          "type": "address"
        }
      ],
      "name": "WhitelistedAddressRemoved",
      "type": "event"
    },
    {
      "inputs": [
        {
          "internalType": "address",
          "name": "account",
          "type": "address"
        }
      ],
      "name": "addAddress",
      "outputs": [],
      "stateMutability": "nonpayable",
      "type": "function"
    },
    {
      "inputs": [
        {
          "internalType": "address[]",
          "name": "accounts",
          "type": "address[]"
        }
      ],
      "name": "addAddresses",
      "outputs": [],
      "stateMutability": "nonpayable",
      "type": "function"
    },
    {
      "inputs": [
        {
          "internalType": "address",
          "name": "account",
          "type": "address"
        }
      ],
      "name": "isWhitelisted",
      "outputs": [
        {
          "internalType": "bool",
          "name": "",
          "type": "bool"
        }
      ],
      "stateMutability": "view",
      "type": "function"
    },
    {
      "inputs": [],
      "name": "owner",
      "outputs": [
        {
          "internalType": "address",
          "name": "",
          "type": "address"
        }
      ],
      "stateMutability": "view",
      "type": "function"
    },
    {
      "inputs": [
        {
          "internalType": "address",
          "name": "account",
          "type": "address"
        }
      ],
      "name": "removeAddress",
      "outputs": [],
      "stateMutability": "nonpayable",
      "type": "function"
    },
    {
      "inputs": [],
      "name": "renounceOwnership",
      "outputs": [],
      "stateMutability": "nonpayable",
      "type": "function"
    },
    {
      "inputs": [
        {
          "internalType": "address",
          "name": "newOwner",
          "type": "address"
        }
      ],
      "name": "transferOwnership",
      "outputs": [],
      "stateMutability": "nonpayable",
      "type": "function"
    }
  ],
  "bytecode": "0x60806040523480156200001157600080fd5b5060405162000d0038038062000d008339818101604052810190620000379190620001f4565b80600073ffffffffffffffffffffffffffffffffffffffff168173ffffffffffffffffffffffffffffffffffffffff1603620000ad5760006040517f1e4fbdf7000000000000000000000000000000000000000000000000000000008152600401620000a4919062000237565b60405180910390fd5b620000be81620000c660201b60201c565b505062000254565b60008060009054906101000a900473ffffffffffffffffffffffffffffffffffffffff169050816000806101000a81548173ffffffffffffffffffffffffffffffffffffffff021916908373ffffffffffffffffffffffffffffffffffffffff1602179055508173ffffffffffffffffffffffffffffffffffffffff168173ffffffffffffffffffffffffffffffffffffffff167f8be0079c531659141344cd1fd0a4f28419497f9722a3daafe3b4186f6b6457e060405160405180910390a35050565b600080fd5b600073ffffffffffffffffffffffffffffffffffffffff82169050919050565b6000620001bc826200018f565b9050919050565b620001ce81620001af565b8114620001da57600080fd5b50565b600081519050620001ee81620001c3565b92915050565b6000602082840312156200020d576200020c6200018a565b5b60006200021d84828501620001dd565b91505092915050565b6200023181620001af565b82525050565b60006020820190506200024e600083018462000226565b92915050565b610a9c80620002646000396000f3fe608060405234801561001057600080fd5b506004361061007d5760003560e01c80634ba79dfe1161005b5780634ba79dfe146100ea578063715018a6146101065780638da5cb5b14610110578063f2fde38b1461012e5761007d565b80633628731c1461008257806338eada1c1461009e5780633af32abf146100ba575b600080fd5b61009c600480360381019061009791906107ca565b61014a565b005b6100b860048036038101906100b39190610875565b61028b565b005b6100d460048036038101906100cf9190610875565b6103bd565b6040516100e191906108bd565b60405180910390f35b61010460048036038101906100ff9190610875565b610413565b005b61010e610545565b005b610118610559565b60405161012591906108e7565b60405180910390f35b61014860048036038101906101439190610875565b610582565b005b610152610608565b60005b8282905081101561028657600083838381811061017557610174610902565b5b905060200201602081019061018a9190610875565b9050600160008273ffffffffffffffffffffffffffffffffffffffff1673ffffffffffffffffffffffffffffffffffffffff16815260200190815260200160002060009054906101000a900460ff166102785760018060008373ffffffffffffffffffffffffffffffffffffffff1673ffffffffffffffffffffffffffffffffffffffff16815260200190815260200160002060006101000a81548160ff0219169083151502179055508073ffffffffffffffffffffffffffffffffffffffff167fd1bba68c128cc3f427e5831b3c6f99f480b6efa6b9e80c757768f6124158cc3f60405160405180910390a25b508080600101915050610155565b505050565b610293610608565b600160008273ffffffffffffffffffffffffffffffffffffffff1673ffffffffffffffffffffffffffffffffffffffff16815260200190815260200160002060009054906101000a900460ff1615610320576040517f08c379a0000000000000000000000000000000000000000000000000000000008152600401610317906109b4565b60405180910390fd5b60018060008373ffffffffffffffffffffffffffffffffffffffff1673ffffffffffffffffffffffffffffffffffffffff16815260200190815260200160002060006101000a81548160ff0219169083151502179055508073ffffffffffffffffffffffffffffffffffffffff167fd1bba68c128cc3f427e5831b3c6f99f480b6efa6b9e80c757768f6124158cc3f60405160405180910390a250565b6000600160008373ffffffffffffffffffffffffffffffffffffffff1673ffffffffffffffffffffffffffffffffffffffff16815260200190815260200160002060009054906101000a900460ff169050919050565b61041b610608565b600160008273ffffffffffffffffffffffffffffffffffffffff1673ffffffffffffffffffffffffffffffffffffffff16815260200190815260200160002060009054906101000a900460ff166104a7576040517f08c379a000000000000000000000000000000000000000000000000000000000815260040161049e90610a46565b60405180910390fd5b6000600160008373ffffffffffffffffffffffffffffffffffffffff1673ffffffffffffffffffffffffffffffffffffffff16815260200190815260200160002060006101000a81548160ff0219169083151502179055508073ffffffffffffffffffffffffffffffffffffffff167ff1abf01a1043b7c244d128e8595cf0c1d10743b022b03a02dffd8ca3bf729f5a60405160405180910390a250565b61054d610608565b610557600061068f565b565b60008060009054906101000a900473ffffffffffffffffffffffffffffffffffffffff16905090565b61058a610608565b600073ffffffffffffffffffffffffffffffffffffffff168173ffffffffffffffffffffffffffffffffffffffff16036105fc5760006040517f1e4fbdf70000000000000000000000000000000000000000000000000000000081526004016105f391906108e7565b60405180910390fd5b6106058161068f565b50565b610610610753565b73ffffffffffffffffffffffffffffffffffffffff1661062e610559565b73ffffffffffffffffffffffffffffffffffffffff161461068d57610651610753565b6040517f118cdaa700000000000000000000000000000000000000000000000000000000815260040161068491906108e7565b60405180910390fd5b565b60008060009054906101000a900473ffffffffffffffffffffffffffffffffffffffff169050816000806101000a81548173ffffffffffffffffffffffffffffffffffffffff021916908373ffffffffffffffffffffffffffffffffffffffff1602179055508173ffffffffffffffffffffffffffffffffffffffff168173ffffffffffffffffffffffffffffffffffffffff167f8be0079c531659141344cd1fd0a4f28419497f9722a3daafe3b4186f6b6457e060405160405180910390a35050565b600033905090565b600080fd5b600080fd5b600080fd5b600080fd5b600080fd5b60008083601f84011261078a57610789610765565b5b8235905067ffffffffffffffff8111156107a7576107a661076a565b5b6020830191508360208202830111156107c3576107c261076f565b5b9250929050565b600080602083850312156107e1576107e061075b565b5b600083013567ffffffffffffffff8111156107ff576107fe610760565b5b61080b85828601610774565b92509250509250929050565b600073ffffffffffffffffffffffffffffffffffffffff82169050919050565b600061084282610817565b9050919050565b61085281610837565b811461085d57600080fd5b50565b60008135905061086f81610849565b92915050565b60006020828403121561088b5761088a61075b565b5b600061089984828501610860565b91505092915050565b60008115159050919050565b6108b7816108a2565b82525050565b60006020820190506108d260008301846108ae565b92915050565b6108e181610837565b82525050565b60006020820190506108fc60008301846108d8565b92915050565b7f4e487b7100000000000000000000000000000000000000000000000000000000600052603260045260246000fd5b600082825260208201905092915050565b7f4b594357686974656c6973743a204164647265737320616c726561647920776860008201527f6974656c69737465640000000000000000000000000000000000000000000000602082015250565b600061099e602983610931565b91506109a982610942565b604082019050919050565b600060208201905081810360008301526109cd81610991565b9050919050565b7f4b594357686974656c6973743a2041646472657373206e6f742077686974656c60008201527f6973746564000000000000000000000000000000000000000000000000000000602082015250565b6000610a30602583610931565b9150610a3b826109d4565b604082019050919050565b60006020820190508181036000830152610a5f81610a23565b905091905056fea26469706673582212208fc1fe33c20428ee4ca5b52470cd439b1d6b2a516d1e7229b6e96fb492cb764764736f6c63430008180033",
  "linkReferences": {},
  "deployedLinkReferences": {}
}