{
  "_format": "hh-sol-artifact-1",
  "contractName": "PriceConsumerExample",
  "sourceName": "contracts/PriceConsumerExample.sol",
  "abi": [
    {
      "inputs": [
        {
          "internalType": "address",
          "name": "oracleAddress",
          "type": "address"
        }
      ],
      "stateMutability": "nonpayable",
      "type": "constructor"
    },
    {
      "inputs": [
        {
          "internalType": "address",
          "name": "account",
          "type": "address"
        }
      ],
      "name": "AddressNotWhitelisted",
      "type": "error"
    },
    {
      "inputs": [],
      "name": "InvalidOracleAddress",
      "type": "error"
    },
    {
      "inputs": [
        {
          "internalType": "bytes32",
          "name": "assetId",
          "type": "bytes32"
        },
        {
          "internalType": "uint256",
          "name": "timestamp",
          "type": "uint256"
        }
      ],
      "name": "PriceNotValidatedYet",
      "type": "error"
    },
    {
      "anonymous": false,
      "inputs": [
        {
          "indexed": true,
          "internalType": "bytes32",
          "name": "assetId",
          "type": "bytes32"
        },
        {
          "indexed": false,
          "internalType": "uint256",
          "name": "timestamp",
          "type": "uint256"
        },
        {
          "indexed": false,
          "internalType": "uint256",
          "name": "price",
          "type": "uint256"
        },
        {
          "indexed": true,
          "internalType": "address",
          "name": "performer",
          "type": "address"
        }
      ],
      "name": "ActionExecutedBasedOnPrice",
      "type": "event"
    },
    {
      "inputs": [
        {
          "internalType": "bytes32",
          "name": "assetId",
          "type": "bytes32"
        },
        {
          "internalType": "uint256",
          "name": "timestamp",
          "type": "uint256"
        }
      ],
      "name": "executeActionWithPrice",
      "outputs": [],
      "stateMutability": "nonpayable",
      "type": "function"
    },
    {
      "inputs": [],
      "name": "getKYCWhitelistAddress",
      "outputs": [
        {
          "internalType": "address",
          "name": "",
          "type": "address"
        }
      ],
      "stateMutability": "view",
      "type": "function"
    },
    {
      "inputs": [],
      "name": "getOracleAddress",
      "outputs": [
        {
          "internalType": "address",
          "name": "",
          "type": "address"
        }
      ],
      "stateMutability": "view",
      "type": "function"
    }
  ],
  "bytecode": "0x608060405234801561001057600080fd5b5060405161091138038061091183398181016040528101906100329190610217565b600073ffffffffffffffffffffffffffffffffffffffff168173ffffffffffffffffffffffffffffffffffffffff1603610098576040517f5521068100000000000000000000000000000000000000000000000000000000815260040160405180910390fd5b806000806101000a81548173ffffffffffffffffffffffffffffffffffffffff021916908373ffffffffffffffffffffffffffffffffffffffff16021790555060008060009054906101000a900473ffffffffffffffffffffffffffffffffffffffff1673ffffffffffffffffffffffffffffffffffffffff1663f9fc3b3b6040518163ffffffff1660e01b8152600401602060405180830381865afa158015610146573d6000803e3d6000fd5b505050506040513d601f19601f8201168201806040525081019061016a9190610217565b905080600160006101000a81548173ffffffffffffffffffffffffffffffffffffffff021916908373ffffffffffffffffffffffffffffffffffffffff1602179055505050610244565b600080fd5b600073ffffffffffffffffffffffffffffffffffffffff82169050919050565b60006101e4826101b9565b9050919050565b6101f4816101d9565b81146101ff57600080fd5b50565b600081519050610211816101eb565b92915050565b60006020828403121561022d5761022c6101b4565b5b600061023b84828501610202565b91505092915050565b6106be806102536000396000f3fe608060405234801561001057600080fd5b50600436106100415760003560e01c8063061d4c5e146100465780638c77a2b014610064578063b18b78dd14610080575b600080fd5b61004e61009e565b60405161005b9190610428565b60405180910390f35b61007e600480360381019061007991906104b4565b6100c8565b005b6100886103be565b6040516100959190610428565b60405180910390f35b6000600160009054906101000a900473ffffffffffffffffffffffffffffffffffffffff16905090565b600160009054906101000a900473ffffffffffffffffffffffffffffffffffffffff1673ffffffffffffffffffffffffffffffffffffffff16633af32abf336040518263ffffffff1660e01b81526004016101239190610428565b602060405180830381865afa158015610140573d6000803e3d6000fd5b505050506040513d601f19601f82011682018060405250810190610164919061052c565b6101a557336040517feadb950f00000000000000000000000000000000000000000000000000000000815260040161019c9190610428565b60405180910390fd5b60008054906101000a900473ffffffffffffffffffffffffffffffffffffffff1673ffffffffffffffffffffffffffffffffffffffff1663e35824a683836040518363ffffffff1660e01b8152600401610200929190610577565b602060405180830381865afa15801561021d573d6000803e3d6000fd5b505050506040513d601f19601f82011682018060405250810190610241919061052c565b6102845781816040517fb302c85b00000000000000000000000000000000000000000000000000000000815260040161027b929190610577565b60405180910390fd5b60008060009054906101000a900473ffffffffffffffffffffffffffffffffffffffff1673ffffffffffffffffffffffffffffffffffffffff166336d0c59184846040518363ffffffff1660e01b81526004016102e2929190610577565b602060405180830381865afa1580156102ff573d6000803e3d6000fd5b505050506040513d601f19601f8201168201806040525081019061032391906105b5565b905060008111610368576040517f08c379a000000000000000000000000000000000000000000000000000000000815260040161035f9061063f565b60405180910390fd5b3373ffffffffffffffffffffffffffffffffffffffff16837f7e3cef25b611b64e69b522140cf93ec66ebd270eb5a3e6dd38a65222146ab4c884846040516103b192919061065f565b60405180910390a3505050565b60008060009054906101000a900473ffffffffffffffffffffffffffffffffffffffff16905090565b600073ffffffffffffffffffffffffffffffffffffffff82169050919050565b6000610412826103e7565b9050919050565b61042281610407565b82525050565b600060208201905061043d6000830184610419565b92915050565b600080fd5b6000819050919050565b61045b81610448565b811461046657600080fd5b50565b60008135905061047881610452565b92915050565b6000819050919050565b6104918161047e565b811461049c57600080fd5b50565b6000813590506104ae81610488565b92915050565b600080604083850312156104cb576104ca610443565b5b60006104d985828601610469565b92505060206104ea8582860161049f565b9150509250929050565b60008115159050919050565b610509816104f4565b811461051457600080fd5b50565b60008151905061052681610500565b92915050565b60006020828403121561054257610541610443565b5b600061055084828501610517565b91505092915050565b61056281610448565b82525050565b6105718161047e565b82525050565b600060408201905061058c6000830185610559565b6105996020830184610568565b9392505050565b6000815190506105af81610488565b92915050565b6000602082840312156105cb576105ca610443565b5b60006105d9848285016105a0565b91505092915050565b600082825260208201905092915050565b7f50726963652063616e6e6f74206265207a65726f000000000000000000000000600082015250565b60006106296014836105e2565b9150610634826105f3565b602082019050919050565b600060208201905081810360008301526106588161061c565b9050919050565b60006040820190506106746000830185610568565b6106816020830184610568565b939250505056fea2646970667358221220ab9e876ea273a0241bb5388f239c05502b27d0159448f6ddffa5ec7d96dc4dda64736f6c63430008180033",
  "linkReferences": {},
  "deployedLinkReferences": {}
}